{
	"data": {
		"bytecode": {
			"linkReferences": {},
			"object": "608060405234801561000f575f80fd5b50604051610e4b380380610e4b8339818101604052810190610031919061020e565b815f8190555080600190816100469190610475565b503360025f6101000a81548173ffffffffffffffffffffffffffffffffffffffff021916908373ffffffffffffffffffffffffffffffffffffffff1602179055505050610544565b5f604051905090565b5f80fd5b5f80fd5b5f819050919050565b6100b18161009f565b81146100bb575f80fd5b50565b5f815190506100cc816100a8565b92915050565b5f80fd5b5f80fd5b5f601f19601f8301169050919050565b7f4e487b71000000000000000000000000000000000000000000000000000000005f52604160045260245ffd5b610120826100da565b810181811067ffffffffffffffff8211171561013f5761013e6100ea565b5b80604052505050565b5f61015161008e565b905061015d8282610117565b919050565b5f67ffffffffffffffff82111561017c5761017b6100ea565b5b610185826100da565b9050602081019050919050565b8281835e5f83830152505050565b5f6101b26101ad84610162565b610148565b9050828152602081018484840111156101ce576101cd6100d6565b5b6101d9848285610192565b509392505050565b5f82601f8301126101f5576101f46100d2565b5b81516102058482602086016101a0565b91505092915050565b5f806040838503121561022457610223610097565b5b5f610231858286016100be565b925050602083015167ffffffffffffffff8111156102525761025161009b565b5b61025e858286016101e1565b9150509250929050565b5f81519050919050565b7f4e487b71000000000000000000000000000000000000000000000000000000005f52602260045260245ffd5b5f60028204905060018216806102b657607f821691505b6020821081036102c9576102c8610272565b5b50919050565b5f819050815f5260205f209050919050565b5f6020601f8301049050919050565b5f82821b905092915050565b5f6008830261032b7fffffffffffffffffffffffffffffffffffffffffffffffffffffffffffffffff826102f0565b61033586836102f0565b95508019841693508086168417925050509392505050565b5f819050919050565b5f819050919050565b5f61037961037461036f8461034d565b610356565b61034d565b9050919050565b5f819050919050565b6103928361035f565b6103a661039e82610380565b8484546102fc565b825550505050565b5f90565b6103ba6103ae565b6103c5818484610389565b505050565b5b818110156103e8576103dd5f826103b2565b6001810190506103cb565b5050565b601f82111561042d576103fe816102cf565b610407846102e1565b81016020851015610416578190505b61042a610422856102e1565b8301826103ca565b50505b505050565b5f82821c905092915050565b5f61044d5f1984600802610432565b1980831691505092915050565b5f610465838361043e565b9150826002028217905092915050565b61047e82610268565b67ffffffffffffffff811115610497576104966100ea565b5b6104a1825461029f565b6104ac8282856103ec565b5f60209050601f8311600181146104dd575f84156104cb578287015190505b6104d5858261045a565b86555061053c565b601f1984166104eb866102cf565b5f5b82811015610512578489015182556001820191506020850194506020810190506104ed565b8683101561052f578489015161052b601f89168261043e565b8355505b6001600288020188555050505b505050505050565b6108fa806105515f395ff3fe608060405234801561000f575f80fd5b506004361061004a575f3560e01c80631f1bd6921461004e5780635bd5b0451461006c5780638381f58a146100885780638da5cb5b146100a6575b5f80fd5b6100566100c4565b60405161006391906102cc565b60405180910390f35b6100866004803603810190610081919061045c565b610150565b005b610090610232565b60405161009d91906104c5565b60405180910390f35b6100ae610237565b6040516100bb919061051d565b60405180910390f35b600180546100d190610563565b80601f01602080910402602001604051908101604052809291908181526020018280546100fd90610563565b80156101485780601f1061011f57610100808354040283529160200191610148565b820191905f5260205f20905b81548152906001019060200180831161012b57829003601f168201915b505050505081565b60025f9054906101000a900473ffffffffffffffffffffffffffffffffffffffff1673ffffffffffffffffffffffffffffffffffffffff163373ffffffffffffffffffffffffffffffffffffffff16146101df576040517f08c379a00000000000000000000000000000000000000000000000000000000081526004016101d690610603565b60405180910390fd5b815f8190555080600190816101f491906107c7565b507f68c6bbe599466116f1d6d28877e398d7e14fcbf3493cf665ebe6a0f917c9332d8282604051610226929190610896565b60405180910390a15050565b5f5481565b60025f9054906101000a900473ffffffffffffffffffffffffffffffffffffffff1681565b5f81519050919050565b5f82825260208201905092915050565b8281835e5f83830152505050565b5f601f19601f8301169050919050565b5f61029e8261025c565b6102a88185610266565b93506102b8818560208601610276565b6102c181610284565b840191505092915050565b5f6020820190508181035f8301526102e48184610294565b905092915050565b5f604051905090565b5f80fd5b5f80fd5b5f819050919050565b61030f816102fd565b8114610319575f80fd5b50565b5f8135905061032a81610306565b92915050565b5f80fd5b5f80fd5b7f4e487b71000000000000000000000000000000000000000000000000000000005f52604160045260245ffd5b61036e82610284565b810181811067ffffffffffffffff8211171561038d5761038c610338565b5b80604052505050565b5f61039f6102ec565b90506103ab8282610365565b919050565b5f67ffffffffffffffff8211156103ca576103c9610338565b5b6103d382610284565b9050602081019050919050565b828183375f83830152505050565b5f6104006103fb846103b0565b610396565b90508281526020810184848401111561041c5761041b610334565b5b6104278482856103e0565b509392505050565b5f82601f83011261044357610442610330565b5b81356104538482602086016103ee565b91505092915050565b5f8060408385031215610472576104716102f5565b5b5f61047f8582860161031c565b925050602083013567ffffffffffffffff8111156104a05761049f6102f9565b5b6104ac8582860161042f565b9150509250929050565b6104bf816102fd565b82525050565b5f6020820190506104d85f8301846104b6565b92915050565b5f73ffffffffffffffffffffffffffffffffffffffff82169050919050565b5f610507826104de565b9050919050565b610517816104fd565b82525050565b5f6020820190506105305f83018461050e565b92915050565b7f4e487b71000000000000000000000000000000000000000000000000000000005f52602260045260245ffd5b5f600282049050600182168061057a57607f821691505b60208210810361058d5761058c610536565b5b50919050565b7f4f6e6c7920746865206f776e65722063616e20757064617465207468652064615f8201527f74612e0000000000000000000000000000000000000000000000000000000000602082015250565b5f6105ed602383610266565b91506105f882610593565b604082019050919050565b5f6020820190508181035f83015261061a816105e1565b9050919050565b5f819050815f5260205f209050919050565b5f6020601f8301049050919050565b5f82821b905092915050565b5f6008830261067d7fffffffffffffffffffffffffffffffffffffffffffffffffffffffffffffffff82610642565b6106878683610642565b95508019841693508086168417925050509392505050565b5f819050919050565b5f819050919050565b5f6106cb6106c66106c18461069f565b6106a8565b61069f565b9050919050565b5f819050919050565b6106e4836106b1565b6106f86106f0826106d2565b84845461064e565b825550505050565b5f90565b61070c610700565b6107178184846106db565b505050565b5b8181101561073a5761072f5f82610704565b60018101905061071d565b5050565b601f82111561077f5761075081610621565b61075984610633565b81016020851015610768578190505b61077c61077485610633565b83018261071c565b50505b505050565b5f82821c905092915050565b5f61079f5f1984600802610784565b1980831691505092915050565b5f6107b78383610790565b9150826002028217905092915050565b6107d08261025c565b67ffffffffffffffff8111156107e9576107e8610338565b5b6107f38254610563565b6107fe82828561073e565b5f60209050601f83116001811461082f575f841561081d578287015190505b61082785826107ac565b86555061088e565b601f19841661083d86610621565b5f5b828110156108645784890151825560018201915060208501945060208101905061083f565b86831015610881578489015161087d601f891682610790565b8355505b6001600288020188555050505b505050505050565b5f6040820190506108a95f8301856104b6565b81810360208301526108bb8184610294565b9050939250505056fea2646970667358221220e54f8027c989c27f51601004a96864b5723b7cf56c3261f5701393a8c7a764c164736f6c634300081a0033",
			"opcodes": "PUSH1 0x80 PUSH1 0x40 MSTORE CALLVALUE DUP1 ISZERO PUSH2 0xF JUMPI PUSH0 DUP1 REVERT JUMPDEST POP PUSH1 0x40 MLOAD PUSH2 0xE4B CODESIZE SUB DUP1 PUSH2 0xE4B DUP4 CODECOPY DUP2 DUP2 ADD PUSH1 0x40 MSTORE DUP2 ADD SWAP1 PUSH2 0x31 SWAP2 SWAP1 PUSH2 0x20E JUMP JUMPDEST DUP2 PUSH0 DUP2 SWAP1 SSTORE POP DUP1 PUSH1 0x1 SWAP1 DUP2 PUSH2 0x46 SWAP2 SWAP1 PUSH2 0x475 JUMP JUMPDEST POP CALLER PUSH1 0x2 PUSH0 PUSH2 0x100 EXP DUP2 SLOAD DUP2 PUSH20 0xFFFFFFFFFFFFFFFFFFFFFFFFFFFFFFFFFFFFFFFF MUL NOT AND SWAP1 DUP4 PUSH20 0xFFFFFFFFFFFFFFFFFFFFFFFFFFFFFFFFFFFFFFFF AND MUL OR SWAP1 SSTORE POP POP POP PUSH2 0x544 JUMP JUMPDEST PUSH0 PUSH1 0x40 MLOAD SWAP1 POP SWAP1 JUMP JUMPDEST PUSH0 DUP1 REVERT JUMPDEST PUSH0 DUP1 REVERT JUMPDEST PUSH0 DUP2 SWAP1 POP SWAP2 SWAP1 POP JUMP JUMPDEST PUSH2 0xB1 DUP2 PUSH2 0x9F JUMP JUMPDEST DUP2 EQ PUSH2 0xBB JUMPI PUSH0 DUP1 REVERT JUMPDEST POP JUMP JUMPDEST PUSH0 DUP2 MLOAD SWAP1 POP PUSH2 0xCC DUP2 PUSH2 0xA8 JUMP JUMPDEST SWAP3 SWAP2 POP POP JUMP JUMPDEST PUSH0 DUP1 REVERT JUMPDEST PUSH0 DUP1 REVERT JUMPDEST PUSH0 PUSH1 0x1F NOT PUSH1 0x1F DUP4 ADD AND SWAP1 POP SWAP2 SWAP1 POP JUMP JUMPDEST PUSH32 0x4E487B7100000000000000000000000000000000000000000000000000000000 PUSH0 MSTORE PUSH1 0x41 PUSH1 0x4 MSTORE PUSH1 0x24 PUSH0 REVERT JUMPDEST PUSH2 0x120 DUP3 PUSH2 0xDA JUMP JUMPDEST DUP2 ADD DUP2 DUP2 LT PUSH8 0xFFFFFFFFFFFFFFFF DUP3 GT OR ISZERO PUSH2 0x13F JUMPI PUSH2 0x13E PUSH2 0xEA JUMP JUMPDEST JUMPDEST DUP1 PUSH1 0x40 MSTORE POP POP POP JUMP JUMPDEST PUSH0 PUSH2 0x151 PUSH2 0x8E JUMP JUMPDEST SWAP1 POP PUSH2 0x15D DUP3 DUP3 PUSH2 0x117 JUMP JUMPDEST SWAP2 SWAP1 POP JUMP JUMPDEST PUSH0 PUSH8 0xFFFFFFFFFFFFFFFF DUP3 GT ISZERO PUSH2 0x17C JUMPI PUSH2 0x17B PUSH2 0xEA JUMP JUMPDEST JUMPDEST PUSH2 0x185 DUP3 PUSH2 0xDA JUMP JUMPDEST SWAP1 POP PUSH1 0x20 DUP2 ADD SWAP1 POP SWAP2 SWAP1 POP JUMP JUMPDEST DUP3 DUP2 DUP4 MCOPY PUSH0 DUP4 DUP4 ADD MSTORE POP POP POP JUMP JUMPDEST PUSH0 PUSH2 0x1B2 PUSH2 0x1AD DUP5 PUSH2 0x162 JUMP JUMPDEST PUSH2 0x148 JUMP JUMPDEST SWAP1 POP DUP3 DUP2 MSTORE PUSH1 0x20 DUP2 ADD DUP5 DUP5 DUP5 ADD GT ISZERO PUSH2 0x1CE JUMPI PUSH2 0x1CD PUSH2 0xD6 JUMP JUMPDEST JUMPDEST PUSH2 0x1D9 DUP5 DUP3 DUP6 PUSH2 0x192 JUMP JUMPDEST POP SWAP4 SWAP3 POP POP POP JUMP JUMPDEST PUSH0 DUP3 PUSH1 0x1F DUP4 ADD SLT PUSH2 0x1F5 JUMPI PUSH2 0x1F4 PUSH2 0xD2 JUMP JUMPDEST JUMPDEST DUP2 MLOAD PUSH2 0x205 DUP5 DUP3 PUSH1 0x20 DUP7 ADD PUSH2 0x1A0 JUMP JUMPDEST SWAP2 POP POP SWAP3 SWAP2 POP POP JUMP JUMPDEST PUSH0 DUP1 PUSH1 0x40 DUP4 DUP6 SUB SLT ISZERO PUSH2 0x224 JUMPI PUSH2 0x223 PUSH2 0x97 JUMP JUMPDEST JUMPDEST PUSH0 PUSH2 0x231 DUP6 DUP3 DUP7 ADD PUSH2 0xBE JUMP JUMPDEST SWAP3 POP POP PUSH1 0x20 DUP4 ADD MLOAD PUSH8 0xFFFFFFFFFFFFFFFF DUP2 GT ISZERO PUSH2 0x252 JUMPI PUSH2 0x251 PUSH2 0x9B JUMP JUMPDEST JUMPDEST PUSH2 0x25E DUP6 DUP3 DUP7 ADD PUSH2 0x1E1 JUMP JUMPDEST SWAP2 POP POP SWAP3 POP SWAP3 SWAP1 POP JUMP JUMPDEST PUSH0 DUP2 MLOAD SWAP1 POP SWAP2 SWAP1 POP JUMP JUMPDEST PUSH32 0x4E487B7100000000000000000000000000000000000000000000000000000000 PUSH0 MSTORE PUSH1 0x22 PUSH1 0x4 MSTORE PUSH1 0x24 PUSH0 REVERT JUMPDEST PUSH0 PUSH1 0x2 DUP3 DIV SWAP1 POP PUSH1 0x1 DUP3 AND DUP1 PUSH2 0x2B6 JUMPI PUSH1 0x7F DUP3 AND SWAP2 POP JUMPDEST PUSH1 0x20 DUP3 LT DUP2 SUB PUSH2 0x2C9 JUMPI PUSH2 0x2C8 PUSH2 0x272 JUMP JUMPDEST JUMPDEST POP SWAP2 SWAP1 POP JUMP JUMPDEST PUSH0 DUP2 SWAP1 POP DUP2 PUSH0 MSTORE PUSH1 0x20 PUSH0 KECCAK256 SWAP1 POP SWAP2 SWAP1 POP JUMP JUMPDEST PUSH0 PUSH1 0x20 PUSH1 0x1F DUP4 ADD DIV SWAP1 POP SWAP2 SWAP1 POP JUMP JUMPDEST PUSH0 DUP3 DUP3 SHL SWAP1 POP SWAP3 SWAP2 POP POP JUMP JUMPDEST PUSH0 PUSH1 0x8 DUP4 MUL PUSH2 0x32B PUSH32 0xFFFFFFFFFFFFFFFFFFFFFFFFFFFFFFFFFFFFFFFFFFFFFFFFFFFFFFFFFFFFFFFF DUP3 PUSH2 0x2F0 JUMP JUMPDEST PUSH2 0x335 DUP7 DUP4 PUSH2 0x2F0 JUMP JUMPDEST SWAP6 POP DUP1 NOT DUP5 AND SWAP4 POP DUP1 DUP7 AND DUP5 OR SWAP3 POP POP POP SWAP4 SWAP3 POP POP POP JUMP JUMPDEST PUSH0 DUP2 SWAP1 POP SWAP2 SWAP1 POP JUMP JUMPDEST PUSH0 DUP2 SWAP1 POP SWAP2 SWAP1 POP JUMP JUMPDEST PUSH0 PUSH2 0x379 PUSH2 0x374 PUSH2 0x36F DUP5 PUSH2 0x34D JUMP JUMPDEST PUSH2 0x356 JUMP JUMPDEST PUSH2 0x34D JUMP JUMPDEST SWAP1 POP SWAP2 SWAP1 POP JUMP JUMPDEST PUSH0 DUP2 SWAP1 POP SWAP2 SWAP1 POP JUMP JUMPDEST PUSH2 0x392 DUP4 PUSH2 0x35F JUMP JUMPDEST PUSH2 0x3A6 PUSH2 0x39E DUP3 PUSH2 0x380 JUMP JUMPDEST DUP5 DUP5 SLOAD PUSH2 0x2FC JUMP JUMPDEST DUP3 SSTORE POP POP POP POP JUMP JUMPDEST PUSH0 SWAP1 JUMP JUMPDEST PUSH2 0x3BA PUSH2 0x3AE JUMP JUMPDEST PUSH2 0x3C5 DUP2 DUP5 DUP5 PUSH2 0x389 JUMP JUMPDEST POP POP POP JUMP JUMPDEST JUMPDEST DUP2 DUP2 LT ISZERO PUSH2 0x3E8 JUMPI PUSH2 0x3DD PUSH0 DUP3 PUSH2 0x3B2 JUMP JUMPDEST PUSH1 0x1 DUP2 ADD SWAP1 POP PUSH2 0x3CB JUMP JUMPDEST POP POP JUMP JUMPDEST PUSH1 0x1F DUP3 GT ISZERO PUSH2 0x42D JUMPI PUSH2 0x3FE DUP2 PUSH2 0x2CF JUMP JUMPDEST PUSH2 0x407 DUP5 PUSH2 0x2E1 JUMP JUMPDEST DUP2 ADD PUSH1 0x20 DUP6 LT ISZERO PUSH2 0x416 JUMPI DUP2 SWAP1 POP JUMPDEST PUSH2 0x42A PUSH2 0x422 DUP6 PUSH2 0x2E1 JUMP JUMPDEST DUP4 ADD DUP3 PUSH2 0x3CA JUMP JUMPDEST POP POP JUMPDEST POP POP POP JUMP JUMPDEST PUSH0 DUP3 DUP3 SHR SWAP1 POP SWAP3 SWAP2 POP POP JUMP JUMPDEST PUSH0 PUSH2 0x44D PUSH0 NOT DUP5 PUSH1 0x8 MUL PUSH2 0x432 JUMP JUMPDEST NOT DUP1 DUP4 AND SWAP2 POP POP SWAP3 SWAP2 POP POP JUMP JUMPDEST PUSH0 PUSH2 0x465 DUP4 DUP4 PUSH2 0x43E JUMP JUMPDEST SWAP2 POP DUP3 PUSH1 0x2 MUL DUP3 OR SWAP1 POP SWAP3 SWAP2 POP POP JUMP JUMPDEST PUSH2 0x47E DUP3 PUSH2 0x268 JUMP JUMPDEST PUSH8 0xFFFFFFFFFFFFFFFF DUP2 GT ISZERO PUSH2 0x497 JUMPI PUSH2 0x496 PUSH2 0xEA JUMP JUMPDEST JUMPDEST PUSH2 0x4A1 DUP3 SLOAD PUSH2 0x29F JUMP JUMPDEST PUSH2 0x4AC DUP3 DUP3 DUP6 PUSH2 0x3EC JUMP JUMPDEST PUSH0 PUSH1 0x20 SWAP1 POP PUSH1 0x1F DUP4 GT PUSH1 0x1 DUP2 EQ PUSH2 0x4DD JUMPI PUSH0 DUP5 ISZERO PUSH2 0x4CB JUMPI DUP3 DUP8 ADD MLOAD SWAP1 POP JUMPDEST PUSH2 0x4D5 DUP6 DUP3 PUSH2 0x45A JUMP JUMPDEST DUP7 SSTORE POP PUSH2 0x53C JUMP JUMPDEST PUSH1 0x1F NOT DUP5 AND PUSH2 0x4EB DUP7 PUSH2 0x2CF JUMP JUMPDEST PUSH0 JUMPDEST DUP3 DUP2 LT ISZERO PUSH2 0x512 JUMPI DUP5 DUP10 ADD MLOAD DUP3 SSTORE PUSH1 0x1 DUP3 ADD SWAP2 POP PUSH1 0x20 DUP6 ADD SWAP5 POP PUSH1 0x20 DUP2 ADD SWAP1 POP PUSH2 0x4ED JUMP JUMPDEST DUP7 DUP4 LT ISZERO PUSH2 0x52F JUMPI DUP5 DUP10 ADD MLOAD PUSH2 0x52B PUSH1 0x1F DUP10 AND DUP3 PUSH2 0x43E JUMP JUMPDEST DUP4 SSTORE POP JUMPDEST PUSH1 0x1 PUSH1 0x2 DUP9 MUL ADD DUP9 SSTORE POP POP POP JUMPDEST POP POP POP POP POP POP JUMP JUMPDEST PUSH2 0x8FA DUP1 PUSH2 0x551 PUSH0 CODECOPY PUSH0 RETURN INVALID PUSH1 0x80 PUSH1 0x40 MSTORE CALLVALUE DUP1 ISZERO PUSH2 0xF JUMPI PUSH0 DUP1 REVERT JUMPDEST POP PUSH1 0x4 CALLDATASIZE LT PUSH2 0x4A JUMPI PUSH0 CALLDATALOAD PUSH1 0xE0 SHR DUP1 PUSH4 0x1F1BD692 EQ PUSH2 0x4E JUMPI DUP1 PUSH4 0x5BD5B045 EQ PUSH2 0x6C JUMPI DUP1 PUSH4 0x8381F58A EQ PUSH2 0x88 JUMPI DUP1 PUSH4 0x8DA5CB5B EQ PUSH2 0xA6 JUMPI JUMPDEST PUSH0 DUP1 REVERT JUMPDEST PUSH2 0x56 PUSH2 0xC4 JUMP JUMPDEST PUSH1 0x40 MLOAD PUSH2 0x63 SWAP2 SWAP1 PUSH2 0x2CC JUMP JUMPDEST PUSH1 0x40 MLOAD DUP1 SWAP2 SUB SWAP1 RETURN JUMPDEST PUSH2 0x86 PUSH1 0x4 DUP1 CALLDATASIZE SUB DUP2 ADD SWAP1 PUSH2 0x81 SWAP2 SWAP1 PUSH2 0x45C JUMP JUMPDEST PUSH2 0x150 JUMP JUMPDEST STOP JUMPDEST PUSH2 0x90 PUSH2 0x232 JUMP JUMPDEST PUSH1 0x40 MLOAD PUSH2 0x9D SWAP2 SWAP1 PUSH2 0x4C5 JUMP JUMPDEST PUSH1 0x40 MLOAD DUP1 SWAP2 SUB SWAP1 RETURN JUMPDEST PUSH2 0xAE PUSH2 0x237 JUMP JUMPDEST PUSH1 0x40 MLOAD PUSH2 0xBB SWAP2 SWAP1 PUSH2 0x51D JUMP JUMPDEST PUSH1 0x40 MLOAD DUP1 SWAP2 SUB SWAP1 RETURN JUMPDEST PUSH1 0x1 DUP1 SLOAD PUSH2 0xD1 SWAP1 PUSH2 0x563 JUMP JUMPDEST DUP1 PUSH1 0x1F ADD PUSH1 0x20 DUP1 SWAP2 DIV MUL PUSH1 0x20 ADD PUSH1 0x40 MLOAD SWAP1 DUP2 ADD PUSH1 0x40 MSTORE DUP1 SWAP3 SWAP2 SWAP1 DUP2 DUP2 MSTORE PUSH1 0x20 ADD DUP3 DUP1 SLOAD PUSH2 0xFD SWAP1 PUSH2 0x563 JUMP JUMPDEST DUP1 ISZERO PUSH2 0x148 JUMPI DUP1 PUSH1 0x1F LT PUSH2 0x11F JUMPI PUSH2 0x100 DUP1 DUP4 SLOAD DIV MUL DUP4 MSTORE SWAP2 PUSH1 0x20 ADD SWAP2 PUSH2 0x148 JUMP JUMPDEST DUP3 ADD SWAP2 SWAP1 PUSH0 MSTORE PUSH1 0x20 PUSH0 KECCAK256 SWAP1 JUMPDEST DUP2 SLOAD DUP2 MSTORE SWAP1 PUSH1 0x1 ADD SWAP1 PUSH1 0x20 ADD DUP1 DUP4 GT PUSH2 0x12B JUMPI DUP3 SWAP1 SUB PUSH1 0x1F AND DUP3 ADD SWAP2 JUMPDEST POP POP POP POP POP DUP2 JUMP JUMPDEST PUSH1 0x2 PUSH0 SWAP1 SLOAD SWAP1 PUSH2 0x100 EXP SWAP1 DIV PUSH20 0xFFFFFFFFFFFFFFFFFFFFFFFFFFFFFFFFFFFFFFFF AND PUSH20 0xFFFFFFFFFFFFFFFFFFFFFFFFFFFFFFFFFFFFFFFF AND CALLER PUSH20 0xFFFFFFFFFFFFFFFFFFFFFFFFFFFFFFFFFFFFFFFF AND EQ PUSH2 0x1DF JUMPI PUSH1 0x40 MLOAD PUSH32 0x8C379A000000000000000000000000000000000000000000000000000000000 DUP2 MSTORE PUSH1 0x4 ADD PUSH2 0x1D6 SWAP1 PUSH2 0x603 JUMP JUMPDEST PUSH1 0x40 MLOAD DUP1 SWAP2 SUB SWAP1 REVERT JUMPDEST DUP2 PUSH0 DUP2 SWAP1 SSTORE POP DUP1 PUSH1 0x1 SWAP1 DUP2 PUSH2 0x1F4 SWAP2 SWAP1 PUSH2 0x7C7 JUMP JUMPDEST POP PUSH32 0x68C6BBE599466116F1D6D28877E398D7E14FCBF3493CF665EBE6A0F917C9332D DUP3 DUP3 PUSH1 0x40 MLOAD PUSH2 0x226 SWAP3 SWAP2 SWAP1 PUSH2 0x896 JUMP JUMPDEST PUSH1 0x40 MLOAD DUP1 SWAP2 SUB SWAP1 LOG1 POP POP JUMP JUMPDEST PUSH0 SLOAD DUP2 JUMP JUMPDEST PUSH1 0x2 PUSH0 SWAP1 SLOAD SWAP1 PUSH2 0x100 EXP SWAP1 DIV PUSH20 0xFFFFFFFFFFFFFFFFFFFFFFFFFFFFFFFFFFFFFFFF AND DUP2 JUMP JUMPDEST PUSH0 DUP2 MLOAD SWAP1 POP SWAP2 SWAP1 POP JUMP JUMPDEST PUSH0 DUP3 DUP3 MSTORE PUSH1 0x20 DUP3 ADD SWAP1 POP SWAP3 SWAP2 POP POP JUMP JUMPDEST DUP3 DUP2 DUP4 MCOPY PUSH0 DUP4 DUP4 ADD MSTORE POP POP POP JUMP JUMPDEST PUSH0 PUSH1 0x1F NOT PUSH1 0x1F DUP4 ADD AND SWAP1 POP SWAP2 SWAP1 POP JUMP JUMPDEST PUSH0 PUSH2 0x29E DUP3 PUSH2 0x25C JUMP JUMPDEST PUSH2 0x2A8 DUP2 DUP6 PUSH2 0x266 JUMP JUMPDEST SWAP4 POP PUSH2 0x2B8 DUP2 DUP6 PUSH1 0x20 DUP7 ADD PUSH2 0x276 JUMP JUMPDEST PUSH2 0x2C1 DUP2 PUSH2 0x284 JUMP JUMPDEST DUP5 ADD SWAP2 POP POP SWAP3 SWAP2 POP POP JUMP JUMPDEST PUSH0 PUSH1 0x20 DUP3 ADD SWAP1 POP DUP2 DUP2 SUB PUSH0 DUP4 ADD MSTORE PUSH2 0x2E4 DUP2 DUP5 PUSH2 0x294 JUMP JUMPDEST SWAP1 POP SWAP3 SWAP2 POP POP JUMP JUMPDEST PUSH0 PUSH1 0x40 MLOAD SWAP1 POP SWAP1 JUMP JUMPDEST PUSH0 DUP1 REVERT JUMPDEST PUSH0 DUP1 REVERT JUMPDEST PUSH0 DUP2 SWAP1 POP SWAP2 SWAP1 POP JUMP JUMPDEST PUSH2 0x30F DUP2 PUSH2 0x2FD JUMP JUMPDEST DUP2 EQ PUSH2 0x319 JUMPI PUSH0 DUP1 REVERT JUMPDEST POP JUMP JUMPDEST PUSH0 DUP2 CALLDATALOAD SWAP1 POP PUSH2 0x32A DUP2 PUSH2 0x306 JUMP JUMPDEST SWAP3 SWAP2 POP POP JUMP JUMPDEST PUSH0 DUP1 REVERT JUMPDEST PUSH0 DUP1 REVERT JUMPDEST PUSH32 0x4E487B7100000000000000000000000000000000000000000000000000000000 PUSH0 MSTORE PUSH1 0x41 PUSH1 0x4 MSTORE PUSH1 0x24 PUSH0 REVERT JUMPDEST PUSH2 0x36E DUP3 PUSH2 0x284 JUMP JUMPDEST DUP2 ADD DUP2 DUP2 LT PUSH8 0xFFFFFFFFFFFFFFFF DUP3 GT OR ISZERO PUSH2 0x38D JUMPI PUSH2 0x38C PUSH2 0x338 JUMP JUMPDEST JUMPDEST DUP1 PUSH1 0x40 MSTORE POP POP POP JUMP JUMPDEST PUSH0 PUSH2 0x39F PUSH2 0x2EC JUMP JUMPDEST SWAP1 POP PUSH2 0x3AB DUP3 DUP3 PUSH2 0x365 JUMP JUMPDEST SWAP2 SWAP1 POP JUMP JUMPDEST PUSH0 PUSH8 0xFFFFFFFFFFFFFFFF DUP3 GT ISZERO PUSH2 0x3CA JUMPI PUSH2 0x3C9 PUSH2 0x338 JUMP JUMPDEST JUMPDEST PUSH2 0x3D3 DUP3 PUSH2 0x284 JUMP JUMPDEST SWAP1 POP PUSH1 0x20 DUP2 ADD SWAP1 POP SWAP2 SWAP1 POP JUMP JUMPDEST DUP3 DUP2 DUP4 CALLDATACOPY PUSH0 DUP4 DUP4 ADD MSTORE POP POP POP JUMP JUMPDEST PUSH0 PUSH2 0x400 PUSH2 0x3FB DUP5 PUSH2 0x3B0 JUMP JUMPDEST PUSH2 0x396 JUMP JUMPDEST SWAP1 POP DUP3 DUP2 MSTORE PUSH1 0x20 DUP2 ADD DUP5 DUP5 DUP5 ADD GT ISZERO PUSH2 0x41C JUMPI PUSH2 0x41B PUSH2 0x334 JUMP JUMPDEST JUMPDEST PUSH2 0x427 DUP5 DUP3 DUP6 PUSH2 0x3E0 JUMP JUMPDEST POP SWAP4 SWAP3 POP POP POP JUMP JUMPDEST PUSH0 DUP3 PUSH1 0x1F DUP4 ADD SLT PUSH2 0x443 JUMPI PUSH2 0x442 PUSH2 0x330 JUMP JUMPDEST JUMPDEST DUP2 CALLDATALOAD PUSH2 0x453 DUP5 DUP3 PUSH1 0x20 DUP7 ADD PUSH2 0x3EE JUMP JUMPDEST SWAP2 POP POP SWAP3 SWAP2 POP POP JUMP JUMPDEST PUSH0 DUP1 PUSH1 0x40 DUP4 DUP6 SUB SLT ISZERO PUSH2 0x472 JUMPI PUSH2 0x471 PUSH2 0x2F5 JUMP JUMPDEST JUMPDEST PUSH0 PUSH2 0x47F DUP6 DUP3 DUP7 ADD PUSH2 0x31C JUMP JUMPDEST SWAP3 POP POP PUSH1 0x20 DUP4 ADD CALLDATALOAD PUSH8 0xFFFFFFFFFFFFFFFF DUP2 GT ISZERO PUSH2 0x4A0 JUMPI PUSH2 0x49F PUSH2 0x2F9 JUMP JUMPDEST JUMPDEST PUSH2 0x4AC DUP6 DUP3 DUP7 ADD PUSH2 0x42F JUMP JUMPDEST SWAP2 POP POP SWAP3 POP SWAP3 SWAP1 POP JUMP JUMPDEST PUSH2 0x4BF DUP2 PUSH2 0x2FD JUMP JUMPDEST DUP3 MSTORE POP POP JUMP JUMPDEST PUSH0 PUSH1 0x20 DUP3 ADD SWAP1 POP PUSH2 0x4D8 PUSH0 DUP4 ADD DUP5 PUSH2 0x4B6 JUMP JUMPDEST SWAP3 SWAP2 POP POP JUMP JUMPDEST PUSH0 PUSH20 0xFFFFFFFFFFFFFFFFFFFFFFFFFFFFFFFFFFFFFFFF DUP3 AND SWAP1 POP SWAP2 SWAP1 POP JUMP JUMPDEST PUSH0 PUSH2 0x507 DUP3 PUSH2 0x4DE JUMP JUMPDEST SWAP1 POP SWAP2 SWAP1 POP JUMP JUMPDEST PUSH2 0x517 DUP2 PUSH2 0x4FD JUMP JUMPDEST DUP3 MSTORE POP POP JUMP JUMPDEST PUSH0 PUSH1 0x20 DUP3 ADD SWAP1 POP PUSH2 0x530 PUSH0 DUP4 ADD DUP5 PUSH2 0x50E JUMP JUMPDEST SWAP3 SWAP2 POP POP JUMP JUMPDEST PUSH32 0x4E487B7100000000000000000000000000000000000000000000000000000000 PUSH0 MSTORE PUSH1 0x22 PUSH1 0x4 MSTORE PUSH1 0x24 PUSH0 REVERT JUMPDEST PUSH0 PUSH1 0x2 DUP3 DIV SWAP1 POP PUSH1 0x1 DUP3 AND DUP1 PUSH2 0x57A JUMPI PUSH1 0x7F DUP3 AND SWAP2 POP JUMPDEST PUSH1 0x20 DUP3 LT DUP2 SUB PUSH2 0x58D JUMPI PUSH2 0x58C PUSH2 0x536 JUMP JUMPDEST JUMPDEST POP SWAP2 SWAP1 POP JUMP JUMPDEST PUSH32 0x4F6E6C7920746865206F776E65722063616E2075706461746520746865206461 PUSH0 DUP3 ADD MSTORE PUSH32 0x74612E0000000000000000000000000000000000000000000000000000000000 PUSH1 0x20 DUP3 ADD MSTORE POP JUMP JUMPDEST PUSH0 PUSH2 0x5ED PUSH1 0x23 DUP4 PUSH2 0x266 JUMP JUMPDEST SWAP2 POP PUSH2 0x5F8 DUP3 PUSH2 0x593 JUMP JUMPDEST PUSH1 0x40 DUP3 ADD SWAP1 POP SWAP2 SWAP1 POP JUMP JUMPDEST PUSH0 PUSH1 0x20 DUP3 ADD SWAP1 POP DUP2 DUP2 SUB PUSH0 DUP4 ADD MSTORE PUSH2 0x61A DUP2 PUSH2 0x5E1 JUMP JUMPDEST SWAP1 POP SWAP2 SWAP1 POP JUMP JUMPDEST PUSH0 DUP2 SWAP1 POP DUP2 PUSH0 MSTORE PUSH1 0x20 PUSH0 KECCAK256 SWAP1 POP SWAP2 SWAP1 POP JUMP JUMPDEST PUSH0 PUSH1 0x20 PUSH1 0x1F DUP4 ADD DIV SWAP1 POP SWAP2 SWAP1 POP JUMP JUMPDEST PUSH0 DUP3 DUP3 SHL SWAP1 POP SWAP3 SWAP2 POP POP JUMP JUMPDEST PUSH0 PUSH1 0x8 DUP4 MUL PUSH2 0x67D PUSH32 0xFFFFFFFFFFFFFFFFFFFFFFFFFFFFFFFFFFFFFFFFFFFFFFFFFFFFFFFFFFFFFFFF DUP3 PUSH2 0x642 JUMP JUMPDEST PUSH2 0x687 DUP7 DUP4 PUSH2 0x642 JUMP JUMPDEST SWAP6 POP DUP1 NOT DUP5 AND SWAP4 POP DUP1 DUP7 AND DUP5 OR SWAP3 POP POP POP SWAP4 SWAP3 POP POP POP JUMP JUMPDEST PUSH0 DUP2 SWAP1 POP SWAP2 SWAP1 POP JUMP JUMPDEST PUSH0 DUP2 SWAP1 POP SWAP2 SWAP1 POP JUMP JUMPDEST PUSH0 PUSH2 0x6CB PUSH2 0x6C6 PUSH2 0x6C1 DUP5 PUSH2 0x69F JUMP JUMPDEST PUSH2 0x6A8 JUMP JUMPDEST PUSH2 0x69F JUMP JUMPDEST SWAP1 POP SWAP2 SWAP1 POP JUMP JUMPDEST PUSH0 DUP2 SWAP1 POP SWAP2 SWAP1 POP JUMP JUMPDEST PUSH2 0x6E4 DUP4 PUSH2 0x6B1 JUMP JUMPDEST PUSH2 0x6F8 PUSH2 0x6F0 DUP3 PUSH2 0x6D2 JUMP JUMPDEST DUP5 DUP5 SLOAD PUSH2 0x64E JUMP JUMPDEST DUP3 SSTORE POP POP POP POP JUMP JUMPDEST PUSH0 SWAP1 JUMP JUMPDEST PUSH2 0x70C PUSH2 0x700 JUMP JUMPDEST PUSH2 0x717 DUP2 DUP5 DUP5 PUSH2 0x6DB JUMP JUMPDEST POP POP POP JUMP JUMPDEST JUMPDEST DUP2 DUP2 LT ISZERO PUSH2 0x73A JUMPI PUSH2 0x72F PUSH0 DUP3 PUSH2 0x704 JUMP JUMPDEST PUSH1 0x1 DUP2 ADD SWAP1 POP PUSH2 0x71D JUMP JUMPDEST POP POP JUMP JUMPDEST PUSH1 0x1F DUP3 GT ISZERO PUSH2 0x77F JUMPI PUSH2 0x750 DUP2 PUSH2 0x621 JUMP JUMPDEST PUSH2 0x759 DUP5 PUSH2 0x633 JUMP JUMPDEST DUP2 ADD PUSH1 0x20 DUP6 LT ISZERO PUSH2 0x768 JUMPI DUP2 SWAP1 POP JUMPDEST PUSH2 0x77C PUSH2 0x774 DUP6 PUSH2 0x633 JUMP JUMPDEST DUP4 ADD DUP3 PUSH2 0x71C JUMP JUMPDEST POP POP JUMPDEST POP POP POP JUMP JUMPDEST PUSH0 DUP3 DUP3 SHR SWAP1 POP SWAP3 SWAP2 POP POP JUMP JUMPDEST PUSH0 PUSH2 0x79F PUSH0 NOT DUP5 PUSH1 0x8 MUL PUSH2 0x784 JUMP JUMPDEST NOT DUP1 DUP4 AND SWAP2 POP POP SWAP3 SWAP2 POP POP JUMP JUMPDEST PUSH0 PUSH2 0x7B7 DUP4 DUP4 PUSH2 0x790 JUMP JUMPDEST SWAP2 POP DUP3 PUSH1 0x2 MUL DUP3 OR SWAP1 POP SWAP3 SWAP2 POP POP JUMP JUMPDEST PUSH2 0x7D0 DUP3 PUSH2 0x25C JUMP JUMPDEST PUSH8 0xFFFFFFFFFFFFFFFF DUP2 GT ISZERO PUSH2 0x7E9 JUMPI PUSH2 0x7E8 PUSH2 0x338 JUMP JUMPDEST JUMPDEST PUSH2 0x7F3 DUP3 SLOAD PUSH2 0x563 JUMP JUMPDEST PUSH2 0x7FE DUP3 DUP3 DUP6 PUSH2 0x73E JUMP JUMPDEST PUSH0 PUSH1 0x20 SWAP1 POP PUSH1 0x1F DUP4 GT PUSH1 0x1 DUP2 EQ PUSH2 0x82F JUMPI PUSH0 DUP5 ISZERO PUSH2 0x81D JUMPI DUP3 DUP8 ADD MLOAD SWAP1 POP JUMPDEST PUSH2 0x827 DUP6 DUP3 PUSH2 0x7AC JUMP JUMPDEST DUP7 SSTORE POP PUSH2 0x88E JUMP JUMPDEST PUSH1 0x1F NOT DUP5 AND PUSH2 0x83D DUP7 PUSH2 0x621 JUMP JUMPDEST PUSH0 JUMPDEST DUP3 DUP2 LT ISZERO PUSH2 0x864 JUMPI DUP5 DUP10 ADD MLOAD DUP3 SSTORE PUSH1 0x1 DUP3 ADD SWAP2 POP PUSH1 0x20 DUP6 ADD SWAP5 POP PUSH1 0x20 DUP2 ADD SWAP1 POP PUSH2 0x83F JUMP JUMPDEST DUP7 DUP4 LT ISZERO PUSH2 0x881 JUMPI DUP5 DUP10 ADD MLOAD PUSH2 0x87D PUSH1 0x1F DUP10 AND DUP3 PUSH2 0x790 JUMP JUMPDEST DUP4 SSTORE POP JUMPDEST PUSH1 0x1 PUSH1 0x2 DUP9 MUL ADD DUP9 SSTORE POP POP POP JUMPDEST POP POP POP POP POP POP JUMP JUMPDEST PUSH0 PUSH1 0x40 DUP3 ADD SWAP1 POP PUSH2 0x8A9 PUSH0 DUP4 ADD DUP6 PUSH2 0x4B6 JUMP JUMPDEST DUP2 DUP2 SUB PUSH1 0x20 DUP4 ADD MSTORE PUSH2 0x8BB DUP2 DUP5 PUSH2 0x294 JUMP JUMPDEST SWAP1 POP SWAP4 SWAP3 POP POP POP JUMP INVALID LOG2 PUSH5 0x6970667358 0x22 SLT KECCAK256 0xE5 0x4F DUP1 0x27 0xC9 DUP10 0xC2 PUSH32 0x51601004A96864B5723B7CF56C3261F5701393A8C7A764C164736F6C63430008 BYTE STOP CALLER "
		},
		"gasEstimates": {
			"creation": {
				"codeDepositCost": "459600",
				"executionCost": "infinite",
				"totalCost": "infinite"
			},
			"external": {
				"number()": "2446",
				"owner()": "2552",
				"text()": "infinite",
				"updateData(int256,string)": "infinite"
			}
		},
		"methodIdentifiers": {
			"number()": "8381f58a",
			"owner()": "8da5cb5b",
			"text()": "1f1bd692",
			"updateData(int256,string)": "5bd5b045"
		}
	},
	"abi": [
		{
			"inputs": [
				{
					"internalType": "int256",
					"name": "_number",
					"type": "int256"
				},
				{
					"internalType": "string",
					"name": "_text",
					"type": "string"
				}
			],
			"stateMutability": "nonpayable",
			"type": "constructor"
		},
		{
			"anonymous": false,
			"inputs": [
				{
					"indexed": false,
					"internalType": "int256",
					"name": "newNumber",
					"type": "int256"
				},
				{
					"indexed": false,
					"internalType": "string",
					"name": "newText",
					"type": "string"
				}
			],
			"name": "DataUpdated",
			"type": "event"
		},
		{
			"inputs": [],
			"name": "number",
			"outputs": [
				{
					"internalType": "int256",
					"name": "",
					"type": "int256"
				}
			],
			"stateMutability": "view",
			"type": "function"
		},
		{
			"inputs": [],
			"name": "owner",
			"outputs": [
				{
					"internalType": "address",
					"name": "",
					"type": "address"
				}
			],
			"stateMutability": "view",
			"type": "function"
		},
		{
			"inputs": [],
			"name": "text",
			"outputs": [
				{
					"internalType": "string",
					"name": "",
					"type": "string"
				}
			],
			"stateMutability": "view",
			"type": "function"
		},
		{
			"inputs": [
				{
					"internalType": "int256",
					"name": "_newNumber",
					"type": "int256"
				},
				{
					"internalType": "string",
					"name": "_newText",
					"type": "string"
				}
			],
			"name": "updateData",
			"outputs": [],
			"stateMutability": "nonpayable",
			"type": "function"
		}
	]
}